{
  "contractName": "Stream",
  "abi": [
    {
      "constant": true,
      "inputs": [],
      "name": "rate",
      "outputs": [
        {
          "name": "price",
          "type": "uint256"
        },
        {
          "name": "interval",
          "type": "uint256"
        }
      ],
      "payable": false,
      "stateMutability": "view",
      "type": "function"
    },
    {
      "constant": true,
      "inputs": [],
      "name": "recipient",
      "outputs": [
        {
          "name": "",
          "type": "address"
        }
      ],
      "payable": false,
      "stateMutability": "view",
      "type": "function"
    },
    {
      "constant": true,
      "inputs": [],
      "name": "sender",
      "outputs": [
        {
          "name": "",
          "type": "address"
        }
      ],
      "payable": false,
      "stateMutability": "view",
      "type": "function"
    },
    {
      "constant": true,
      "inputs": [],
      "name": "timeframe",
      "outputs": [
        {
          "name": "start",
          "type": "uint256"
        },
        {
          "name": "end",
          "type": "uint256"
        }
      ],
      "payable": false,
      "stateMutability": "view",
      "type": "function"
    },
    {
      "constant": true,
      "inputs": [],
      "name": "funds",
      "outputs": [
        {
          "name": "",
          "type": "uint256"
        }
      ],
      "payable": false,
      "stateMutability": "view",
      "type": "function"
    },
    {
      "inputs": [
        {
          "name": "_recipient",
          "type": "address"
        },
        {
          "name": "_price",
          "type": "uint256"
        },
        {
          "name": "_interval",
          "type": "uint256"
        },
        {
          "name": "duration",
          "type": "uint256"
        }
      ],
      "payable": true,
      "stateMutability": "payable",
      "type": "constructor"
    },
    {
      "anonymous": false,
      "inputs": [
        {
          "indexed": false,
          "name": "sender",
          "type": "address"
        },
        {
          "indexed": false,
          "name": "recipient",
          "type": "address"
        },
        {
          "indexed": false,
          "name": "price",
          "type": "uint256"
        },
        {
          "indexed": false,
          "name": "interval",
          "type": "uint256"
        }
      ],
      "name": "StreamStarted",
      "type": "event"
    },
    {
      "anonymous": false,
      "inputs": [
        {
          "indexed": false,
          "name": "sender",
          "type": "address"
        },
        {
          "indexed": false,
          "name": "recipient",
          "type": "address"
        },
        {
          "indexed": false,
          "name": "senderFunds",
          "type": "uint256"
        },
        {
          "indexed": false,
          "name": "recipientFunds",
          "type": "uint256"
        }
      ],
      "name": "StreamClosed",
      "type": "event"
    },
    {
      "constant": true,
      "inputs": [],
      "name": "currentBilling",
      "outputs": [
        {
          "name": "",
          "type": "uint256"
        }
      ],
      "payable": false,
      "stateMutability": "view",
      "type": "function"
    },
    {
      "constant": false,
      "inputs": [],
      "name": "close",
      "outputs": [],
      "payable": false,
      "stateMutability": "nonpayable",
      "type": "function"
    },
    {
      "constant": false,
      "inputs": [],
      "name": "redeem",
      "outputs": [],
      "payable": false,
      "stateMutability": "nonpayable",
      "type": "function"
    }
  ],
  "bytecode": "0x608060405260405160808061092983398101806040528101908080519060200190929190805190602001909291908051906020019092919080519060200190929190505050336000806101000a81548173ffffffffffffffffffffffffffffffffffffffff021916908373ffffffffffffffffffffffffffffffffffffffff16021790555083600160006101000a81548173ffffffffffffffffffffffffffffffffffffffff021916908373ffffffffffffffffffffffffffffffffffffffff1602179055508260046000018190555081600460010181905550600460000154600460010154828115156100ef57fe5b04026006819055503460065414151561010757600080fd5b4360026000018190555080600260000154016002600101819055507f7da30d604ad3c1ef1b9fa6978d229c30fe15e2554a1e62bf3955ea3f8aebd1406000809054906101000a900473ffffffffffffffffffffffffffffffffffffffff16600160009054906101000a900473ffffffffffffffffffffffffffffffffffffffff16600460000154600460010154604051808573ffffffffffffffffffffffffffffffffffffffff1673ffffffffffffffffffffffffffffffffffffffff1681526020018473ffffffffffffffffffffffffffffffffffffffff1673ffffffffffffffffffffffffffffffffffffffff16815260200183815260200182815260200194505050505060405180910390a150505050610700806102296000396000f30060806040526004361061008e576000357c0100000000000000000000000000000000000000000000000000000000900463ffffffff1680632c4e722e1461009357806343d726d6146100c557806366d003ac146100dc57806367e404ce14610133578063ba59b66f1461018a578063be040fb0146101bc578063c89f2ce4146101d3578063d08ca999146101fe575b600080fd5b34801561009f57600080fd5b506100a8610229565b604051808381526020018281526020019250505060405180910390f35b3480156100d157600080fd5b506100da61023b565b005b3480156100e857600080fd5b506100f161044a565b604051808273ffffffffffffffffffffffffffffffffffffffff1673ffffffffffffffffffffffffffffffffffffffff16815260200191505060405180910390f35b34801561013f57600080fd5b50610148610470565b604051808273ffffffffffffffffffffffffffffffffffffffff1673ffffffffffffffffffffffffffffffffffffffff16815260200191505060405180910390f35b34801561019657600080fd5b5061019f610495565b604051808381526020018281526020019250505060405180910390f35b3480156101c857600080fd5b506101d16104a7565b005b3480156101df57600080fd5b506101e861066f565b6040518082815260200191505060405180910390f35b34801561020a57600080fd5b50610213610675565b6040518082815260200191505060405180910390f35b60048060000154908060010154905082565b60008060009054906101000a900473ffffffffffffffffffffffffffffffffffffffff1673ffffffffffffffffffffffffffffffffffffffff163373ffffffffffffffffffffffffffffffffffffffff1614151561029857600080fd5b60026000015443101580156102b257506002600101544311155b15156102bd57600080fd5b60046000015460046001015460026000015443038115156102da57fe5b040290506000809054906101000a900473ffffffffffffffffffffffffffffffffffffffff1673ffffffffffffffffffffffffffffffffffffffff166108fc829081150290604051600060405180830381858888f19350505050158015610345573d6000803e3d6000fd5b50600060026001018190556002600001819055507f113a76b0b76716f9187727967b5e76f46a612a73d611a7b2dc46f30ff5257dc36000809054906101000a900473ffffffffffffffffffffffffffffffffffffffff16600160009054906101000a900473ffffffffffffffffffffffffffffffffffffffff16838460065403604051808573ffffffffffffffffffffffffffffffffffffffff1673ffffffffffffffffffffffffffffffffffffffff1681526020018473ffffffffffffffffffffffffffffffffffffffff1673ffffffffffffffffffffffffffffffffffffffff16815260200183815260200182815260200194505050505060405180910390a150565b600160009054906101000a900473ffffffffffffffffffffffffffffffffffffffff1681565b6000809054906101000a900473ffffffffffffffffffffffffffffffffffffffff1681565b60028060000154908060010154905082565b600160009054906101000a900473ffffffffffffffffffffffffffffffffffffffff1673ffffffffffffffffffffffffffffffffffffffff163373ffffffffffffffffffffffffffffffffffffffff1614151561050357600080fd5b600060026000015414801561051d57506000600260010154145b8061053c57506002600001544310801561053b575060026001015443115b5b151561054757600080fd5b7f113a76b0b76716f9187727967b5e76f46a612a73d611a7b2dc46f30ff5257dc36000809054906101000a900473ffffffffffffffffffffffffffffffffffffffff16600160009054906101000a900473ffffffffffffffffffffffffffffffffffffffff166000600654604051808573ffffffffffffffffffffffffffffffffffffffff1673ffffffffffffffffffffffffffffffffffffffff1681526020018473ffffffffffffffffffffffffffffffffffffffff1673ffffffffffffffffffffffffffffffffffffffff16815260200183815260200182815260200194505050505060405180910390a1600160009054906101000a900473ffffffffffffffffffffffffffffffffffffffff1673ffffffffffffffffffffffffffffffffffffffff16ff5b60065481565b6000600260000154431015801561069157506002600101544311155b151561069c57600080fd5b60026000015443101515156106b057600080fd5b60046000015460046001015460026000015443038115156106cd57fe5b04029050905600a165627a7a72305820cfc1af13461ac8768ac23b8d079534025b96422ab2ece3cdbb1688a805c9cc5c0029",
  "source": "pragma solidity ^0.4.24;\n\ncontract Stream {\n\n    struct Timeframe {\n        uint256 start;\n        uint256 end;\n    }\n\n    struct Rate {\n        uint256 price;\n        uint256 interval;\n    }\n\n    address public sender;\n    address public recipient;\n\n    // strong assumptions on block intervals\n    Timeframe public timeframe;\n    Rate public rate;\n    uint256 public funds;\n\n    // events\n    event StreamStarted(address sender, address recipient, uint256 price, uint256 interval);\n    event StreamClosed(address sender, address recipient, uint256 senderFunds, uint256 recipientFunds);\n\n    constructor(address _recipient, uint256 _price, uint256 _interval, uint256 duration) public payable {\n        sender = msg.sender;\n        recipient = _recipient;\n\n        // default is 1 block\n        rate.price = _price;\n        rate.interval = _interval;\n\n        // this acts like a pseudo-escrow account, rate needs to be in wei\n        funds = (duration / rate.interval) * rate.price;\n        require(funds == msg.value);\n\n        // delays could occur here when the network is bloated\n        timeframe.start = block.number;\n        timeframe.end = timeframe.start + duration;\n\n        emit StreamStarted(sender, recipient, rate.price, rate.interval);\n    }\n\n    /**\n     * Modifiers\n     */\n    modifier onlySender() {\n        require(msg.sender == sender);\n        _;\n    }\n\n    modifier onlyRecipient() {\n        require(msg.sender == recipient);\n        _;\n    }\n\n    modifier onlyInvolvedParties() {\n        require(msg.sender == sender || msg.sender == recipient);\n        _;\n    }\n\n    modifier isStreaming() {\n        require(block.number >= timeframe.start && block.number <= timeframe.end);\n        _;\n    }\n\n    modifier isNotStreaming() {\n        // stream is either deactivated or ongoing\n        require((timeframe.start == 0 && timeframe.end == 0) || (block.number < timeframe.start && block.number > timeframe.end));\n        _;\n    }\n\n    /**\n     * View\n     */\n    function currentBilling() isStreaming public view returns (uint256) {\n        require(block.number >= timeframe.start);\n        return ((block.number - timeframe.start) / rate.interval) * rate.price;\n    }\n\n    /**\n     * State\n     */\n    function close() onlySender isStreaming public {\n        uint256 senderFunds = ((block.number - timeframe.start) / rate.interval) * rate.price;\n        sender.transfer(senderFunds);\n        timeframe.start = timeframe.end = 0;\n        emit StreamClosed(sender, recipient, senderFunds, funds - senderFunds);\n    }\n\n    /**\n     * Recipients cannot currently close the stream while it is active,\n     * but this may be amended in the future.\n     */\n    function redeem() onlyRecipient isNotStreaming public {\n        emit StreamClosed(sender, recipient, 0, funds);\n        selfdestruct(recipient);\n    }\n}",
  "sourcePath": "/Users/paulrberg/Documents/Projects/Chronos/Coding/poc/contracts/Stream.sol",
  "compiler": {
    "name": "solc",
    "version": "0.4.24+commit.e67f0147.Emscripten.clang"
  },
  "schemaVersion": "2.0.1",
  "updatedAt": "2018-09-06T10:39:45.269Z"
}