{
  "contractName": "Stream",
  "abi": [
    {
      "constant": true,
      "inputs": [],
      "name": "payer",
      "outputs": [
        {
          "name": "",
          "type": "address"
        }
      ],
      "payable": false,
      "stateMutability": "view",
      "type": "function"
    },
    {
      "constant": true,
      "inputs": [],
      "name": "rate",
      "outputs": [
        {
          "name": "",
          "type": "uint256"
        }
      ],
      "payable": false,
      "stateMutability": "view",
      "type": "function"
    },
    {
      "constant": true,
      "inputs": [],
      "name": "startBlock",
      "outputs": [
        {
          "name": "",
          "type": "uint256"
        }
      ],
      "payable": false,
      "stateMutability": "view",
      "type": "function"
    },
    {
      "constant": true,
      "inputs": [],
      "name": "closeBlock",
      "outputs": [
        {
          "name": "",
          "type": "uint256"
        }
      ],
      "payable": false,
      "stateMutability": "view",
      "type": "function"
    },
    {
      "constant": true,
      "inputs": [],
      "name": "payee",
      "outputs": [
        {
          "name": "",
          "type": "address"
        }
      ],
      "payable": false,
      "stateMutability": "view",
      "type": "function"
    },
    {
      "inputs": [],
      "payable": false,
      "stateMutability": "nonpayable",
      "type": "constructor"
    },
    {
      "anonymous": false,
      "inputs": [
        {
          "indexed": false,
          "name": "payer",
          "type": "address"
        },
        {
          "indexed": false,
          "name": "payee",
          "type": "address"
        },
        {
          "indexed": false,
          "name": "rate",
          "type": "uint256"
        }
      ],
      "name": "StreamStarted",
      "type": "event"
    },
    {
      "anonymous": false,
      "inputs": [
        {
          "indexed": false,
          "name": "payer",
          "type": "address"
        },
        {
          "indexed": false,
          "name": "payee",
          "type": "address"
        },
        {
          "indexed": false,
          "name": "funds",
          "type": "uint256"
        }
      ],
      "name": "StreamClosed",
      "type": "event"
    },
    {
      "constant": true,
      "inputs": [],
      "name": "getCurrentBilling",
      "outputs": [
        {
          "name": "",
          "type": "uint256"
        }
      ],
      "payable": false,
      "stateMutability": "view",
      "type": "function"
    },
    {
      "constant": false,
      "inputs": [
        {
          "name": "_payee",
          "type": "address"
        },
        {
          "name": "_closeBlock",
          "type": "uint256"
        },
        {
          "name": "_rate",
          "type": "uint256"
        }
      ],
      "name": "start",
      "outputs": [],
      "payable": true,
      "stateMutability": "payable",
      "type": "function"
    },
    {
      "constant": false,
      "inputs": [],
      "name": "close",
      "outputs": [],
      "payable": false,
      "stateMutability": "nonpayable",
      "type": "function"
    },
    {
      "constant": false,
      "inputs": [],
      "name": "kill",
      "outputs": [],
      "payable": false,
      "stateMutability": "nonpayable",
      "type": "function"
    }
  ],
  "bytecode": "0x608060405234801561001057600080fd5b50336000806101000a81548173ffffffffffffffffffffffffffffffffffffffff021916908373ffffffffffffffffffffffffffffffffffffffff160217905550610777806100606000396000f300608060405260043610610099576000357c0100000000000000000000000000000000000000000000000000000000900463ffffffff16806308bd0bdf1461009e578063123119cd146100c95780632c4e722e1461012057806341c0e1b51461014b57806343d726d61461016257806348cd4cb11461017957806350f8a01e146101a45780638cdcbdef146101ee578063ae90b21314610219575b600080fd5b3480156100aa57600080fd5b506100b3610270565b6040518082815260200191505060405180910390f35b3480156100d557600080fd5b506100de6102bd565b604051808273ffffffffffffffffffffffffffffffffffffffff1673ffffffffffffffffffffffffffffffffffffffff16815260200191505060405180910390f35b34801561012c57600080fd5b506101356102e2565b6040518082815260200191505060405180910390f35b34801561015757600080fd5b506101606102e8565b005b34801561016e57600080fd5b50610177610322565b005b34801561018557600080fd5b5061018e610567565b6040518082815260200191505060405180910390f35b6101ec600480360381019080803573ffffffffffffffffffffffffffffffffffffffff169060200190929190803590602001909291908035906020019092919050505061056d565b005b3480156101fa57600080fd5b5061020361071f565b6040518082815260200191505060405180910390f35b34801561022557600080fd5b5061022e610725565b604051808273ffffffffffffffffffffffffffffffffffffffff1673ffffffffffffffffffffffffffffffffffffffff16815260200191505060405180910390f35b6000806000439050600254811015801561028c57506003548111155b151561029757600080fd5b43915060025482101515156102ab57600080fd5b60045460025460035403029250505090565b6000809054906101000a900473ffffffffffffffffffffffffffffffffffffffff1681565b60045481565b6000809054906101000a900473ffffffffffffffffffffffffffffffffffffffff1673ffffffffffffffffffffffffffffffffffffffff16ff5b6000806000809054906101000a900473ffffffffffffffffffffffffffffffffffffffff1673ffffffffffffffffffffffffffffffffffffffff163373ffffffffffffffffffffffffffffffffffffffff1614806103cd5750600160009054906101000a900473ffffffffffffffffffffffffffffffffffffffff1673ffffffffffffffffffffffffffffffffffffffff163373ffffffffffffffffffffffffffffffffffffffff16145b15156103d857600080fd5b600043905060025481101580156103f157506003548111155b15156103fc57600080fd5b4392506004546002548403029150600160009054906101000a900473ffffffffffffffffffffffffffffffffffffffff1673ffffffffffffffffffffffffffffffffffffffff166108fc839081150290604051600060405180830381858888f19350505050158015610472573d6000803e3d6000fd5b50600060038190556002819055507f62352b3c7da1207582441b9784554cabf6efd45901d5de2c3bbf0159bf6e4dee6000809054906101000a900473ffffffffffffffffffffffffffffffffffffffff16600160009054906101000a900473ffffffffffffffffffffffffffffffffffffffff1684604051808473ffffffffffffffffffffffffffffffffffffffff1673ffffffffffffffffffffffffffffffffffffffff1681526020018373ffffffffffffffffffffffffffffffffffffffff1673ffffffffffffffffffffffffffffffffffffffff168152602001828152602001935050505060405180910390a1505050565b60025481565b6000809054906101000a900473ffffffffffffffffffffffffffffffffffffffff1673ffffffffffffffffffffffffffffffffffffffff163373ffffffffffffffffffffffffffffffffffffffff161415156105c857600080fd5b82600160006101000a81548173ffffffffffffffffffffffffffffffffffffffff021916908373ffffffffffffffffffffffffffffffffffffffff16021790555043600281905550816003819055508060048190555034600454600254600354030214151561063657600080fd5b7f72ca55c210460630e0c131d5e7a4e033f51b2ec840af1c39f5cc58755d6295076000809054906101000a900473ffffffffffffffffffffffffffffffffffffffff16600160009054906101000a900473ffffffffffffffffffffffffffffffffffffffff16600454604051808473ffffffffffffffffffffffffffffffffffffffff1673ffffffffffffffffffffffffffffffffffffffff1681526020018373ffffffffffffffffffffffffffffffffffffffff1673ffffffffffffffffffffffffffffffffffffffff168152602001828152602001935050505060405180910390a1505050565b60035481565b600160009054906101000a900473ffffffffffffffffffffffffffffffffffffffff16815600a165627a7a7230582080244e66b05cc179e190d6dcc4fc7ef114e1ed877991371071b3a8d74b40a0c20029",
  "source": "pragma solidity ^0.4.24;\n\ncontract Stream {\n\n    address public payer;\n    address public payee;\n\n    uint256 public startBlock;\n    uint256 public closeBlock;\n    uint256 public rate;\n\n    event StreamStarted(address payer, address payee, uint256 rate);\n    event StreamClosed(address payer, address payee, uint256 funds);\n\n    constructor() public {\n        payer = msg.sender;\n//        payee = _payee;\n    }\n\n    /**\n     * Modifiers\n     */\n    modifier onlyPayer() {\n        require(msg.sender == payer);\n        _;\n    }\n\n    modifier onlyInvolvedParties() {\n        require(msg.sender == payer || msg.sender == payee);\n        _;\n    }\n\n    modifier isStreaming() {\n        uint256 currentBlock = block.number;\n        require(currentBlock >= startBlock && currentBlock <= closeBlock);\n        _;\n    }\n\n    modifier isNotStreaming() {\n        uint256 currentBlock = block.number;\n        require((startBlock == 0 && closeBlock == 0) || (currentBlock < startBlock && currentBlock > closeBlock));\n        _;\n    }\n\n    /**\n     * View\n     */\n    function getCurrentBilling() isStreaming public view returns (uint256) {\n        uint256 currentBlock = block.number;\n        require(currentBlock >= startBlock);\n        return (closeBlock - startBlock) * rate;\n    }\n\n    /**\n     * State\n     */\n    function start(address _payee, uint256 _closeBlock, uint256 _rate) onlyPayer public payable {\n        payee = _payee;\n        startBlock = block.number;\n        closeBlock = _closeBlock;\n        rate = _rate;\n        require((closeBlock - startBlock) * rate == msg.value);\n        emit StreamStarted(payer, payee, rate);\n    }\n\n    function close() onlyInvolvedParties isStreaming public {\n        uint256 currentBlock = block.number;\n\n        uint256 funds = (currentBlock - startBlock) * rate;\n        payee.transfer(funds);\n        startBlock = closeBlock = 0;\n        emit StreamClosed(payer, payee, funds);\n    }\n\n    /**\n     * Destroy\n     * This should require signs from both parties\n     */\n    function kill() public {\n        selfdestruct(payer);\n    }\n}\n",
  "sourcePath": "/Users/paulrberg/Documents/Projects/Chronos/Coding/onchain-mvp/contracts/Stream.sol",
  "compiler": {
    "name": "solc",
    "version": "0.4.24+commit.e67f0147.Emscripten.clang"
  },
  "schemaVersion": "2.0.1",
  "updatedAt": "2018-08-19T12:29:18.879Z"
}