{
  "contractName": "Stream",
  "abi": [
    {
      "constant": true,
      "inputs": [],
      "name": "rate",
      "outputs": [
        {
          "name": "",
          "type": "uint256"
        }
      ],
      "payable": false,
      "stateMutability": "view",
      "type": "function"
    },
    {
      "constant": true,
      "inputs": [],
      "name": "startBlock",
      "outputs": [
        {
          "name": "",
          "type": "uint256"
        }
      ],
      "payable": false,
      "stateMutability": "view",
      "type": "function"
    },
    {
      "constant": true,
      "inputs": [],
      "name": "closeBlock",
      "outputs": [
        {
          "name": "",
          "type": "uint256"
        }
      ],
      "payable": false,
      "stateMutability": "view",
      "type": "function"
    },
    {
      "constant": true,
      "inputs": [],
      "name": "bob",
      "outputs": [
        {
          "name": "",
          "type": "address"
        }
      ],
      "payable": false,
      "stateMutability": "view",
      "type": "function"
    },
    {
      "constant": true,
      "inputs": [],
      "name": "alice",
      "outputs": [
        {
          "name": "",
          "type": "address"
        }
      ],
      "payable": false,
      "stateMutability": "view",
      "type": "function"
    },
    {
      "inputs": [],
      "payable": false,
      "stateMutability": "nonpayable",
      "type": "constructor"
    },
    {
      "anonymous": false,
      "inputs": [
        {
          "indexed": false,
          "name": "payer",
          "type": "address"
        },
        {
          "indexed": false,
          "name": "payee",
          "type": "address"
        },
        {
          "indexed": false,
          "name": "rate",
          "type": "uint256"
        }
      ],
      "name": "StreamStarted",
      "type": "event"
    },
    {
      "anonymous": false,
      "inputs": [
        {
          "indexed": false,
          "name": "payer",
          "type": "address"
        },
        {
          "indexed": false,
          "name": "payee",
          "type": "address"
        },
        {
          "indexed": false,
          "name": "funds",
          "type": "uint256"
        }
      ],
      "name": "StreamClosed",
      "type": "event"
    },
    {
      "constant": true,
      "inputs": [],
      "name": "getCurrentBilling",
      "outputs": [
        {
          "name": "",
          "type": "uint256"
        }
      ],
      "payable": false,
      "stateMutability": "view",
      "type": "function"
    },
    {
      "constant": false,
      "inputs": [
        {
          "name": "_bob",
          "type": "address"
        },
        {
          "name": "duration",
          "type": "uint256"
        },
        {
          "name": "_rate",
          "type": "uint256"
        }
      ],
      "name": "start",
      "outputs": [],
      "payable": true,
      "stateMutability": "payable",
      "type": "function"
    },
    {
      "constant": false,
      "inputs": [],
      "name": "close",
      "outputs": [],
      "payable": false,
      "stateMutability": "nonpayable",
      "type": "function"
    },
    {
      "constant": false,
      "inputs": [],
      "name": "kill",
      "outputs": [],
      "payable": false,
      "stateMutability": "nonpayable",
      "type": "function"
    }
  ],
  "bytecode": "0x608060405234801561001057600080fd5b50336000806101000a81548173ffffffffffffffffffffffffffffffffffffffff021916908373ffffffffffffffffffffffffffffffffffffffff16021790555061071c806100606000396000f300608060405260043610610099576000357c0100000000000000000000000000000000000000000000000000000000900463ffffffff16806308bd0bdf1461009e5780632c4e722e146100c957806341c0e1b5146100f457806343d726d61461010b57806348cd4cb11461012257806350f8a01e1461014d5780638cdcbdef14610197578063c09cec77146101c2578063fb47e3a214610219575b600080fd5b3480156100aa57600080fd5b506100b3610270565b6040518082815260200191505060405180910390f35b3480156100d557600080fd5b506100de6102bd565b6040518082815260200191505060405180910390f35b34801561010057600080fd5b506101096102c3565b005b34801561011757600080fd5b506101206102fd565b005b34801561012e57600080fd5b506101376104e9565b6040518082815260200191505060405180910390f35b610195600480360381019080803573ffffffffffffffffffffffffffffffffffffffff16906020019092919080359060200190929190803590602001909291905050506104ef565b005b3480156101a357600080fd5b506101ac61069f565b6040518082815260200191505060405180910390f35b3480156101ce57600080fd5b506101d76106a5565b604051808273ffffffffffffffffffffffffffffffffffffffff1673ffffffffffffffffffffffffffffffffffffffff16815260200191505060405180910390f35b34801561022557600080fd5b5061022e6106cb565b604051808273ffffffffffffffffffffffffffffffffffffffff1673ffffffffffffffffffffffffffffffffffffffff16815260200191505060405180910390f35b6000806000439050600254811015801561028c57506003548111155b151561029757600080fd5b43915060025482101515156102ab57600080fd5b60045460025460035403029250505090565b60045481565b6000809054906101000a900473ffffffffffffffffffffffffffffffffffffffff1673ffffffffffffffffffffffffffffffffffffffff16ff5b6000806000809054906101000a900473ffffffffffffffffffffffffffffffffffffffff1673ffffffffffffffffffffffffffffffffffffffff163373ffffffffffffffffffffffffffffffffffffffff1614151561035b57600080fd5b6000439050600254811015801561037457506003548111155b151561037f57600080fd5b43925060045460025484030291506000809054906101000a900473ffffffffffffffffffffffffffffffffffffffff1673ffffffffffffffffffffffffffffffffffffffff166108fc839081150290604051600060405180830381858888f193505050501580156103f4573d6000803e3d6000fd5b50600060038190556002819055507f62352b3c7da1207582441b9784554cabf6efd45901d5de2c3bbf0159bf6e4dee6000809054906101000a900473ffffffffffffffffffffffffffffffffffffffff16600160009054906101000a900473ffffffffffffffffffffffffffffffffffffffff1684604051808473ffffffffffffffffffffffffffffffffffffffff1673ffffffffffffffffffffffffffffffffffffffff1681526020018373ffffffffffffffffffffffffffffffffffffffff1673ffffffffffffffffffffffffffffffffffffffff168152602001828152602001935050505060405180910390a1505050565b60025481565b6000809054906101000a900473ffffffffffffffffffffffffffffffffffffffff1673ffffffffffffffffffffffffffffffffffffffff163373ffffffffffffffffffffffffffffffffffffffff1614151561054a57600080fd5b82600160006101000a81548173ffffffffffffffffffffffffffffffffffffffff021916908373ffffffffffffffffffffffffffffffffffffffff160217905550436002819055508160025401600381905550806004819055503460045483021415156105b657600080fd5b7f72ca55c210460630e0c131d5e7a4e033f51b2ec840af1c39f5cc58755d6295076000809054906101000a900473ffffffffffffffffffffffffffffffffffffffff16600160009054906101000a900473ffffffffffffffffffffffffffffffffffffffff16600454604051808473ffffffffffffffffffffffffffffffffffffffff1673ffffffffffffffffffffffffffffffffffffffff1681526020018373ffffffffffffffffffffffffffffffffffffffff1673ffffffffffffffffffffffffffffffffffffffff168152602001828152602001935050505060405180910390a1505050565b60035481565b600160009054906101000a900473ffffffffffffffffffffffffffffffffffffffff1681565b6000809054906101000a900473ffffffffffffffffffffffffffffffffffffffff16815600a165627a7a72305820b15929d2f9a207c31b0ddc971c22c5b8bb0730a0a2f93b9316b3b8da27085b210029",
  "source": "pragma solidity ^0.4.24;\n\ncontract Stream {\n\n    address public alice;\n    address public bob;\n\n    uint256 public startBlock;\n    uint256 public closeBlock;\n    uint256 public rate; // implied time unit is 1 block\n\n    event StreamStarted(address payer, address payee, uint256 rate);\n    event StreamClosed(address payer, address payee, uint256 funds);\n\n    constructor() public {\n        alice = msg.sender;\n    }\n\n    /**\n     * Modifiers\n     */\n    modifier onlyAlice() {\n        require(msg.sender == alice);\n        _;\n    }\n\n    modifier onlyInvolvedParties() {\n        require(msg.sender == alice || msg.sender == bob);\n        _;\n    }\n\n    modifier isStreaming() {\n        uint256 currentBlock = block.number;\n        require(currentBlock >= startBlock && currentBlock <= closeBlock);\n        _;\n    }\n\n    modifier isNotStreaming() {\n        uint256 currentBlock = block.number;\n        require((startBlock == 0 && closeBlock == 0) || (currentBlock < startBlock && currentBlock > closeBlock));\n        _;\n    }\n\n    /**\n     * View\n     */\n    function getCurrentBilling() isStreaming public view returns (uint256) {\n        uint256 currentBlock = block.number;\n        require(currentBlock >= startBlock);\n        return (closeBlock - startBlock) * rate;\n    }\n\n    /**\n     * State\n     */\n    function start(address _bob, uint256 duration, uint256 _rate) onlyAlice public payable {\n        bob = _bob;\n        startBlock = block.number;\n        closeBlock = startBlock + duration;\n        rate = _rate;\n        require(duration * rate == msg.value);\n        emit StreamStarted(alice, bob, rate);\n    }\n\n    function close() onlyAlice isStreaming public {\n        uint256 currentBlock = block.number;\n        uint256 funds = (currentBlock - startBlock) * rate;\n        alice.transfer(funds);\n        startBlock = closeBlock = 0;\n        emit StreamClosed(alice, bob, funds);\n    }\n\n    /**\n     * Destroy\n     * This should require signs from both parties\n     */\n    function kill() public {\n        selfdestruct(alice);\n    }\n}\n",
  "sourcePath": "/Users/paulrberg/Documents/Projects/Chronos/Coding/onchain-mvp/contracts/Stream.sol",
  "compiler": {
    "name": "solc",
    "version": "0.4.24+commit.e67f0147.Emscripten.clang"
  },
  "schemaVersion": "2.0.1",
  "updatedAt": "2018-08-23T01:24:57.950Z"
}